:020000040000FA
:060000000A128A110C280F
:10000800FE00030EF2000A08F3000A128A113828CB
:100018000A128A110F28F40183010A128A1114287E
:10002800831603130F088F3960388F000F1083165B
:100038000317880189018316031307138717C03034
:100048008B0020308C002630980083160317870118
:1000580090308312031398000C3083160313990011
:1000680034280A128A110C28831203138C1E3D2887
:100078003E2855281A08F0007008F4008316031368
:10008800981C4728482842287408831203139900AB
:100098001A30F100F830F000F00B5028F10B50281E
:1000A800000073088A00720E8300FE0E7E0E09009F
:04400E00E52FFF3F5C
:00000001FF
